{
  "contractName": "Game",
  "abi": [
    {
      "constant": true,
      "inputs": [],
      "name": "playersNumber",
      "outputs": [
        {
          "name": "",
          "type": "uint256"
        }
      ],
      "payable": false,
      "stateMutability": "view",
      "type": "function",
      "signature": "0x3af59cf5"
    },
    {
      "constant": true,
      "inputs": [
        {
          "name": "",
          "type": "address"
        }
      ],
      "name": "loggedInPlayers",
      "outputs": [
        {
          "name": "",
          "type": "bool"
        }
      ],
      "payable": false,
      "stateMutability": "view",
      "type": "function",
      "signature": "0x8c3ac43e"
    },
    {
      "inputs": [
        {
          "name": "",
          "type": "uint256"
        }
      ],
      "payable": false,
      "stateMutability": "view",
      "type": "function",
      "signature": "0xf71d96cb",
      "constant": true,
      "name": "players",
      "outputs": [
        {
          "name": "id",
          "type": "uint256"
        },
        {
          "name": "_name",
          "type": "string"
        }
      ]
    },
    {
      "anonymous": false,
      "inputs": [
        {
          "indexed": true,
          "name": "_playerId",
          "type": "uint256"
        }
      ],
      "name": "loginEvent",
      "type": "event",
      "signature": "0xfa2f6711f8659f6f6876be85ece2b432a500eace4fd5fc1afdfd3851eaa5c6ab"
    },
    {
      "constant": false,
      "inputs": [
        {
          "name": "_name",
          "type": "string"
        }
      ],
      "name": "login",
      "outputs": [],
      "payable": false,
      "stateMutability": "nonpayable",
      "type": "function",
      "signature": "0x3a7d280c"
    }
  ],
  "bytecode": "0x608060405234801561001057600080fd5b50610501806100206000396000f3fe608060405234801561001057600080fd5b5060043610610069576000357c0100000000000000000000000000000000000000000000000000000000900480633a7d280c1461006e5780633af59cf5146101295780638c3ac43e14610147578063f71d96cb146101a3575b600080fd5b6101276004803603602081101561008457600080fd5b81019080803590602001906401000000008111156100a157600080fd5b8201836020820111156100b357600080fd5b803590602001918460018302840111640100000000831117156100d557600080fd5b91908080601f016020809104026020016040519081016040528093929190818152602001838380828437600081840152601f19601f820116905080830192505050505050509192919290505050610251565b005b6101316102e3565b6040518082815260200191505060405180910390f35b6101896004803603602081101561015d57600080fd5b81019080803573ffffffffffffffffffffffffffffffffffffffff1690602001909291905050506102e9565b604051808215151515815260200191505060405180910390f35b6101cf600480360360208110156101b957600080fd5b8101908080359060200190929190505050610309565b6040518083815260200180602001828103825283818151815260200191508051906020019080838360005b838110156102155780820151818401526020810190506101fa565b50505050905090810190601f1680156102425780820380516001836020036101000a031916815260200191505b50935050505060405180910390f35b61025a816103c5565b60016000803373ffffffffffffffffffffffffffffffffffffffff1673ffffffffffffffffffffffffffffffffffffffff16815260200190815260200160002060006101000a81548160ff0219169083151502179055506002547ffa2f6711f8659f6f6876be85ece2b432a500eace4fd5fc1afdfd3851eaa5c6ab60405160405180910390a250565b60025481565b60006020528060005260406000206000915054906101000a900460ff1681565b6001602052806000526040600020600091509050806000015490806001018054600181600116156101000203166002900480601f0160208091040260200160405190810160405280929190818152602001828054600181600116156101000203166002900480156103bb5780601f10610390576101008083540402835291602001916103bb565b820191906000526020600020905b81548152906001019060200180831161039e57829003601f168201915b5050505050905082565b6002600081548092919060010191905055506040518060400160405280600254815260200182815250600160006002548152602001908152602001600020600082015181600001556020820151816001019080519060200190610429929190610430565b5090505050565b828054600181600116156101000203166002900490600052602060002090601f016020900481019282601f1061047157805160ff191683800117855561049f565b8280016001018555821561049f579182015b8281111561049e578251825591602001919060010190610483565b5b5090506104ac91906104b0565b5090565b6104d291905b808211156104ce5760008160009055506001016104b6565b5090565b9056fea165627a7a723058201e41979d92d902d1985a35cf81438c78815e27d0ff22296e5d2c0dcc9a482add0029",
  "source": "pragma solidity ^0.5.7;\n\ncontract Game {\n\n    struct Player {\n        uint id;\n        string _name; \n    }\n\n    mapping(address => bool) public loggedInPlayers;\n    mapping(uint => Player) public players;\n    uint public playersNumber;\n\n    event loginEvent (\n        uint indexed _playerId\n    );\n\n    function addPlayer (string memory _name) private {\n        playersNumber ++;\n        players[playersNumber] = Player(playersNumber, _name);\n    }\n\n    function login (string memory _name) public {\n        addPlayer(_name);\n        loggedInPlayers[msg.sender] = true;\n        emit loginEvent(playersNumber);\n    }\n}\n",
  "sourcePath": "C:/Users/sbuzau/Desktop/BlockchainProject/game/contracts/Game.sol",
  "compiler": {
    "name": "solc",
    "version": "0.5.7+commit.6da8b019.Emscripten.clang"
  },
  "schemaVersion": "3.0.6",
  "updatedAt": "2019-04-24T08:36:22.703Z",
  "devdoc": {
    "methods": {}
  },
  "userdoc": {
    "methods": {}
  }
}